{
  "contractName": "Election",
  "abi": [
    {
      "constant": true,
      "inputs": [],
      "name": "candidate",
      "outputs": [
        {
          "internalType": "string",
          "name": "",
          "type": "string"
        }
      ],
      "payable": false,
      "stateMutability": "view",
      "type": "function"
    },
    {
      "constant": false,
      "inputs": [],
      "name": "Election1",
      "outputs": [],
      "payable": false,
      "stateMutability": "nonpayable",
      "type": "function"
    }
  ],
  "bytecode": "0x608060405234801561001057600080fd5b5061028e806100206000396000f3fe608060405234801561001057600080fd5b50600436106100365760003560e01c80633daefe4b1461003b5780636c8381f814610045575b600080fd5b6100436100c8565b005b61004d610116565b6040518080602001828103825283818151815260200191508051906020019080838360005b8381101561008d578082015181840152602081019050610072565b50505050905090810190601f1680156100ba5780820380516001836020036101000a031916815260200191505b509250505060405180910390f35b6040518060400160405280600b81526020017f43616e6469646174652031000000000000000000000000000000000000000000815250600090805190602001906101139291906101b4565b50565b60008054600181600116156101000203166002900480601f0160208091040260200160405190810160405280929190818152602001828054600181600116156101000203166002900480156101ac5780601f10610181576101008083540402835291602001916101ac565b820191906000526020600020905b81548152906001019060200180831161018f57829003601f168201915b505050505081565b828054600181600116156101000203166002900490600052602060002090601f016020900481019282601f106101f557805160ff1916838001178555610223565b82800160010185558215610223579182015b82811115610222578251825591602001919060010190610207565b5b5090506102309190610234565b5090565b61025691905b8082111561025257600081600090555060010161023a565b5090565b9056fea265627a7a723158209a96b299a5569aed591b803a942c67f97f606b1655d02138d41d4fe8adf7d3a064736f6c63430005100032",
  "source": "pragma solidity  ^0.5.16;\r\n\r\n/**\r\n * The contractName contract does this and that...\r\n */\r\ncontract Election {\r\n\r\n\tstring public candidate;\r\n\r\n\r\n\tfunction Election1() public{\r\n\t\tcandidate = \"Candidate 1\";\r\n\t}\r\n\t\r\n}\r\n",
  "sourcePath": "C:\\Users\\a1999\\election\\contracts\\Election.sol",
  "compiler": {
    "name": "solc",
    "version": "0.5.16+commit.9c3226ce.Emscripten.clang"
  },
  "schemaVersion": "3.4.3",
  "updatedAt": "2021-09-26T22:41:33.738Z",
  "networkType": "ethereum",
  "devdoc": {
    "methods": {}
  },
  "userdoc": {
    "methods": {},
    "notice": "The contractName contract does this and that..."
  }
}